{
  "_format": "hh-sol-artifact-1",
  "contractName": "Factory",
  "sourceName": "contracts/Escrow.sol",
  "abi": [
    {
      "inputs": [],
      "stateMutability": "nonpayable",
      "type": "constructor"
    },
    {
      "inputs": [
        {
          "internalType": "uint256",
          "name": "",
          "type": "uint256"
        }
      ],
      "name": "allEscrowContracts",
      "outputs": [
        {
          "internalType": "address",
          "name": "",
          "type": "address"
        }
      ],
      "stateMutability": "view",
      "type": "function"
    },
    {
      "inputs": [],
      "name": "createContract",
      "outputs": [],
      "stateMutability": "nonpayable",
      "type": "function"
    },
    {
      "inputs": [],
      "name": "escrowCount",
      "outputs": [
        {
          "internalType": "uint256",
          "name": "",
          "type": "uint256"
        }
      ],
      "stateMutability": "view",
      "type": "function"
    },
    {
      "inputs": [],
      "name": "getAllContracts",
      "outputs": [
        {
          "internalType": "address[]",
          "name": "",
          "type": "address[]"
        }
      ],
      "stateMutability": "view",
      "type": "function"
    },
    {
      "inputs": [
        {
          "internalType": "uint256",
          "name": "queryID",
          "type": "uint256"
        }
      ],
      "name": "getByID",
      "outputs": [
        {
          "internalType": "address",
          "name": "",
          "type": "address"
        }
      ],
      "stateMutability": "view",
      "type": "function"
    }
  ],
  "bytecode": "0x608060405234801561001057600080fd5b506000600181905550612c79806100286000396000f3fe608060405234801561001057600080fd5b50600436106100575760003560e01c806318d3ce961461005c578063412a5a6d1461007a5780634df2c5f514610084578063675ac67a146100b457806374fb0aa7146100d2575b600080fd5b610064610102565b60405161007191906103cf565b60405180910390f35b610082610190565b005b61009e6004803603810190610099919061042c565b610246565b6040516100ab9190610468565b60405180910390f35b6100bc610285565b6040516100c99190610492565b60405180910390f35b6100ec60048036038101906100e7919061042c565b61028b565b6040516100f99190610468565b60405180910390f35b6060600080548060200260200160405190810160405280929190818152602001828054801561018657602002820191906000526020600020905b8160009054906101000a900473ffffffffffffffffffffffffffffffffffffffff1673ffffffffffffffffffffffffffffffffffffffff168152602001906001019080831161013c575b5050505050905090565b600033600160008154809291906101a6906104dc565b919050556040516101b6906102d2565b6101c1929190610524565b604051809103906000f0801580156101dd573d6000803e3d6000fd5b5090506000819080600181540180825580915050600190039060005260206000200160009091909190916101000a81548173ffffffffffffffffffffffffffffffffffffffff021916908373ffffffffffffffffffffffffffffffffffffffff16021790555050565b6000818154811061025657600080fd5b906000526020600020016000915054906101000a900473ffffffffffffffffffffffffffffffffffffffff1681565b60015481565b60008082815481106102a05761029f61054d565b5b9060005260206000200160009054906101000a900473ffffffffffffffffffffffffffffffffffffffff169050919050565b6126c78061057d83390190565b600081519050919050565b600082825260208201905092915050565b6000819050602082019050919050565b600073ffffffffffffffffffffffffffffffffffffffff82169050919050565b60006103368261030b565b9050919050565b6103468161032b565b82525050565b6000610358838361033d565b60208301905092915050565b6000602082019050919050565b600061037c826102df565b61038681856102ea565b9350610391836102fb565b8060005b838110156103c25781516103a9888261034c565b97506103b483610364565b925050600181019050610395565b5085935050505092915050565b600060208201905081810360008301526103e98184610371565b905092915050565b600080fd5b6000819050919050565b610409816103f6565b811461041457600080fd5b50565b60008135905061042681610400565b92915050565b600060208284031215610442576104416103f1565b5b600061045084828501610417565b91505092915050565b6104628161032b565b82525050565b600060208201905061047d6000830184610459565b92915050565b61048c816103f6565b82525050565b60006020820190506104a76000830184610483565b92915050565b7f4e487b7100000000000000000000000000000000000000000000000000000000600052601160045260246000fd5b60006104e7826103f6565b91507fffffffffffffffffffffffffffffffffffffffffffffffffffffffffffffffff8203610519576105186104ad565b5b600182019050919050565b60006040820190506105396000830185610459565b6105466020830184610483565b9392505050565b7f4e487b7100000000000000000000000000000000000000000000000000000000600052603260045260246000fdfe60806040526000600c60006101000a81548160ff021916908360058111156200002d576200002c620000bd565b5b02179055503480156200003f57600080fd5b50604051620026c7380380620026c7833981810160405281019062000065919062000191565b81600360006101000a81548173ffffffffffffffffffffffffffffffffffffffff021916908373ffffffffffffffffffffffffffffffffffffffff1602179055508060068190555060006007819055505050620001d8565b7f4e487b7100000000000000000000000000000000000000000000000000000000600052602160045260246000fd5b600080fd5b600073ffffffffffffffffffffffffffffffffffffffff82169050919050565b60006200011e82620000f1565b9050919050565b620001308162000111565b81146200013c57600080fd5b50565b600081519050620001508162000125565b92915050565b6000819050919050565b6200016b8162000156565b81146200017757600080fd5b50565b6000815190506200018b8162000160565b92915050565b60008060408385031215620001ab57620001aa620000ec565b5b6000620001bb858286016200013f565b9250506020620001ce858286016200017a565b9150509250929050565b6124df80620001e86000396000f3fe6080604052600436106101f25760003560e01c8063904eee231161010d578063d45b0007116100a0578063e3c9236d1161006f578063e3c9236d146106f5578063e9d13b5714610720578063f73a3d1f1461074b578063f973822e14610776578063fe74edbd146107a157610289565b8063d45b000714610671578063d55a17c014610688578063daef173f146106b3578063e1e417c4146106ca57610289565b8063bc49308f116100dc578063bc49308f146105c5578063bcade28d146105f0578063bf5c98221461061b578063d3f3f5ea1461064657610289565b8063904eee231461051b5780639529387c14610546578063a9e169131461055d578063b02c43d01461058857610289565b8063431702561161018557806369e154041161015457806369e154041461046f5780637150d8ae1461049a578063788d6b91146104c55780637fd6f15c146104f057610289565b806343170256146103c357806347b2c736146103ee57806357e871e714610419578063674759e91461044457610289565b8063260ace31116101c1578063260ace311461033a5780633b5dd202146103635780633eb5241d1461038e57806342cbb15c1461039857610289565b806308551a531461028e5780630a1792cc146102b9578063183f66b6146102e45780631b6701911461030f57610289565b3661028957600260009054906101000a900473ffffffffffffffffffffffffffffffffffffffff1673ffffffffffffffffffffffffffffffffffffffff163373ffffffffffffffffffffffffffffffffffffffff1614610287576040517f08c379a000000000000000000000000000000000000000000000000000000000815260040161027e90611b5d565b60405180910390fd5b005b600080fd5b34801561029a57600080fd5b506102a36107cc565b6040516102b09190611bbe565b60405180910390f35b3480156102c557600080fd5b506102ce6107f2565b6040516102db9190611bf4565b60405180910390f35b3480156102f057600080fd5b506102f9610805565b6040516103069190611bf4565b60405180910390f35b34801561031b57600080fd5b50610324610818565b6040516103319190611c86565b60405180910390f35b34801561034657600080fd5b50610361600480360381019061035c9190611d08565b61082b565b005b34801561036f57600080fd5b50610378610c6d565b6040516103859190611d7e565b60405180910390f35b610396610c77565b005b3480156103a457600080fd5b506103ad610ec3565b6040516103ba9190611d7e565b60405180910390f35b3480156103cf57600080fd5b506103d8610ecb565b6040516103e59190611bbe565b60405180910390f35b3480156103fa57600080fd5b50610403610ed3565b6040516104109190611d7e565b60405180910390f35b34801561042557600080fd5b5061042e610ed9565b60405161043b9190611d7e565b60405180910390f35b34801561045057600080fd5b50610459610edf565b6040516104669190611d7e565b60405180910390f35b34801561047b57600080fd5b50610484610ee5565b6040516104919190611d7e565b60405180910390f35b3480156104a657600080fd5b506104af610eeb565b6040516104bc9190611bbe565b60405180910390f35b3480156104d157600080fd5b506104da610f11565b6040516104e79190611d7e565b60405180910390f35b3480156104fc57600080fd5b50610505610f1b565b6040516105129190611d7e565b60405180910390f35b34801561052757600080fd5b50610530610f21565b60405161053d9190611bf4565b60405180910390f35b34801561055257600080fd5b5061055b610f49565b005b34801561056957600080fd5b506105726110ff565b60405161057f9190611bf4565b60405180910390f35b34801561059457600080fd5b506105af60048036038101906105aa9190611d99565b611127565b6040516105bc9190611d7e565b60405180910390f35b3480156105d157600080fd5b506105da61114b565b6040516105e79190611d7e565b60405180910390f35b3480156105fc57600080fd5b50610605611151565b6040516106129190611bf4565b60405180910390f35b34801561062757600080fd5b50610630611179565b60405161063d9190611d7e565b60405180910390f35b34801561065257600080fd5b5061065b611183565b6040516106689190611e84565b60405180910390f35b34801561067d57600080fd5b506106866111db565b005b34801561069457600080fd5b5061069d611451565b6040516106aa9190611bf4565b60405180910390f35b3480156106bf57600080fd5b506106c8611464565b005b3480156106d657600080fd5b506106df6116d7565b6040516106ec9190611bbe565b60405180910390f35b34801561070157600080fd5b5061070a6116fd565b6040516107179190611bf4565b60405180910390f35b34801561072c57600080fd5b5061073561171a565b6040516107429190611bf4565b60405180910390f35b34801561075757600080fd5b5061076061172d565b60405161076d9190611bf4565b60405180910390f35b34801561078257600080fd5b5061078b611755565b6040516107989190611c86565b60405180910390f35b3480156107ad57600080fd5b506107b661176c565b6040516107c39190611d7e565b60405180910390f35b600160009054906101000a900473ffffffffffffffffffffffffffffffffffffffff1681565b600860019054906101000a900460ff1681565b600860009054906101000a900460ff1681565b600c60009054906101000a900460ff1681565b600360009054906101000a900473ffffffffffffffffffffffffffffffffffffffff1673ffffffffffffffffffffffffffffffffffffffff163373ffffffffffffffffffffffffffffffffffffffff16146108bb576040517f08c379a00000000000000000000000000000000000000000000000000000000081526004016108b290611ef2565b60405180910390fd5b3373ffffffffffffffffffffffffffffffffffffffff168473ffffffffffffffffffffffffffffffffffffffff161415801561092357503373ffffffffffffffffffffffffffffffffffffffff168373ffffffffffffffffffffffffffffffffffffffff1614155b610962576040517f08c379a000000000000000000000000000000000000000000000000000000000815260040161095990611f84565b60405180910390fd5b8273ffffffffffffffffffffffffffffffffffffffff168473ffffffffffffffffffffffffffffffffffffffff16036109d0576040517f08c379a00000000000000000000000000000000000000000000000000000000081526004016109c790612016565b60405180910390fd5b600082101580156109e2575060648211155b610a21576040517f08c379a0000000000000000000000000000000000000000000000000000000008152600401610a18906120a8565b60405180910390fd5b438111610a63576040517f08c379a0000000000000000000000000000000000000000000000000000000008152600401610a5a90612114565b60405180910390fd5b60008473ffffffffffffffffffffffffffffffffffffffff163b148015610aa1575060008373ffffffffffffffffffffffffffffffffffffffff163b145b610ae0576040517f08c379a0000000000000000000000000000000000000000000000000000000008152600401610ad790612180565b60405180910390fd5b83600160006101000a81548173ffffffffffffffffffffffffffffffffffffffff021916908373ffffffffffffffffffffffffffffffffffffffff16021790555082600260006101000a81548173ffffffffffffffffffffffffffffffffffffffff021916908373ffffffffffffffffffffffffffffffffffffffff16021790555081600581905550806004819055506001600c60006101000a81548160ff02191690836005811115610b9657610b95611c0f565b5b02179055506000806000600160009054906101000a900473ffffffffffffffffffffffffffffffffffffffff1673ffffffffffffffffffffffffffffffffffffffff1673ffffffffffffffffffffffffffffffffffffffff168152602001908152602001600020819055506000806000600260009054906101000a900473ffffffffffffffffffffffffffffffffffffffff1673ffffffffffffffffffffffffffffffffffffffff1673ffffffffffffffffffffffffffffffffffffffff1681526020019081526020016000208190555050505050565b6000600b54905090565b4360045411610cbb576040517f08c379a0000000000000000000000000000000000000000000000000000000008152600401610cb2906121ec565b60405180910390fd5b600260009054906101000a900473ffffffffffffffffffffffffffffffffffffffff1673ffffffffffffffffffffffffffffffffffffffff163373ffffffffffffffffffffffffffffffffffffffff1614610d4b576040517f08c379a0000000000000000000000000000000000000000000000000000000008152600401610d4290611b5d565b60405180910390fd5b34600080600260009054906101000a900473ffffffffffffffffffffffffffffffffffffffff1673ffffffffffffffffffffffffffffffffffffffff1673ffffffffffffffffffffffffffffffffffffffff16815260200190815260200160002054610db7919061223b565b600080600260009054906101000a900473ffffffffffffffffffffffffffffffffffffffff1673ffffffffffffffffffffffffffffffffffffffff1673ffffffffffffffffffffffffffffffffffffffff1681526020019081526020016000208190555060093490806001815401808255809150506001900390600052602060002001600090919091909150553460076000828254610e56919061223b565b925050819055506002600c60006101000a81548160ff02191690836005811115610e8357610e82611c0f565b5b02179055507fe1fffcc4923d04b559f4d29a8bfc6cda04eb5b0d3c460751c2402c5c5cc9109c3334604051610eb9929190612291565b60405180910390a1565b600043905090565b600030905090565b600b5481565b60045481565b60075481565b600a5481565b600260009054906101000a900473ffffffffffffffffffffffffffffffffffffffff1681565b6000600654905090565b60055481565b6000600860029054906101000a900460ff1615610f415760019050610f46565b600090505b90565b60036005811115610f5d57610f5c611c0f565b5b600c60009054906101000a900460ff166005811115610f7f57610f7e611c0f565b5b1480610fbd5750600580811115610f9957610f98611c0f565b5b600c60009054906101000a900460ff166005811115610fbb57610fba611c0f565b5b145b610ffc576040517f08c379a0000000000000000000000000000000000000000000000000000000008152600401610ff390612306565b60405180910390fd5b600360009054906101000a900473ffffffffffffffffffffffffffffffffffffffff1673ffffffffffffffffffffffffffffffffffffffff163373ffffffffffffffffffffffffffffffffffffffff161461108c576040517f08c379a000000000000000000000000000000000000000000000000000000000815260040161108390611ef2565b60405180910390fd5b600360009054906101000a900473ffffffffffffffffffffffffffffffffffffffff1673ffffffffffffffffffffffffffffffffffffffff166108fc479081150290604051600060405180830381858888f193505050501580156110f4573d6000803e3d6000fd5b506110fd611774565b565b6000600860039054906101000a900460ff161561111f5760019050611124565b600090505b90565b6009818154811061113757600080fd5b906000526020600020016000915090505481565b60065481565b6000600860019054906101000a900460ff16156111715760019050611176565b600090505b90565b6000600a54905090565b606060098054806020026020016040519081016040528092919081815260200182805480156111d157602002820191906000526020600020905b8154815260200190600101908083116111bd575b5050505050905090565b436004541161121f576040517f08c379a0000000000000000000000000000000000000000000000000000000008152600401611216906121ec565b60405180910390fd5b600260009054906101000a900473ffffffffffffffffffffffffffffffffffffffff1673ffffffffffffffffffffffffffffffffffffffff163373ffffffffffffffffffffffffffffffffffffffff1614806112c85750600160009054906101000a900473ffffffffffffffffffffffffffffffffffffffff1673ffffffffffffffffffffffffffffffffffffffff163373ffffffffffffffffffffffffffffffffffffffff16145b611307576040517f08c379a00000000000000000000000000000000000000000000000000000000081526004016112fe90612372565b60405180910390fd5b600160009054906101000a900473ffffffffffffffffffffffffffffffffffffffff1673ffffffffffffffffffffffffffffffffffffffff163373ffffffffffffffffffffffffffffffffffffffff160361137c576001600860026101000a81548160ff0219169083151502179055506113ee565b600260009054906101000a900473ffffffffffffffffffffffffffffffffffffffff1673ffffffffffffffffffffffffffffffffffffffff163373ffffffffffffffffffffffffffffffffffffffff16036113ed576001600860036101000a81548160ff0219169083151502179055505b5b600860029054906101000a900460ff1680156114165750600860039054906101000a900460ff165b1561144f576005600c60006101000a81548160ff0219169083600581111561144157611440611c0f565b5b021790555061144e6117af565b5b565b600860029054906101000a900460ff1681565b600260009054906101000a900473ffffffffffffffffffffffffffffffffffffffff1673ffffffffffffffffffffffffffffffffffffffff163373ffffffffffffffffffffffffffffffffffffffff16148061150d5750600160009054906101000a900473ffffffffffffffffffffffffffffffffffffffff1673ffffffffffffffffffffffffffffffffffffffff163373ffffffffffffffffffffffffffffffffffffffff16145b61154c576040517f08c379a000000000000000000000000000000000000000000000000000000000815260040161154390612372565b60405180910390fd5b600160009054906101000a900473ffffffffffffffffffffffffffffffffffffffff1673ffffffffffffffffffffffffffffffffffffffff163373ffffffffffffffffffffffffffffffffffffffff16036115c1576001600860006101000a81548160ff021916908315150217905550611633565b600260009054906101000a900473ffffffffffffffffffffffffffffffffffffffff1673ffffffffffffffffffffffffffffffffffffffff163373ffffffffffffffffffffffffffffffffffffffff1603611632576001600860016101000a81548160ff0219169083151502179055505b5b600860009054906101000a900460ff16801561165b5750600860019054906101000a900460ff165b156116d5576003600c60006101000a81548160ff0219169083600581111561168657611685611c0f565b5b021790555061169361181a565b61169b6118c3565b7fe45e63303e8639704d39bc5471f075dcad871f77f93d978e3393e58cfdd5d98943476040516116cc929190612392565b60405180910390a15b565b600360009054906101000a900473ffffffffffffffffffffffffffffffffffffffff1681565b60004360045411156117125760009050611717565b600190505b90565b600860039054906101000a900460ff1681565b6000600860009054906101000a900460ff161561174d5760019050611752565b600090505b90565b6000600c60009054906101000a900460ff16905090565b600047905090565b600360009054906101000a900473ffffffffffffffffffffffffffffffffffffffff1673ffffffffffffffffffffffffffffffffffffffff16ff5b600260009054906101000a900473ffffffffffffffffffffffffffffffffffffffff1673ffffffffffffffffffffffffffffffffffffffff166108fc479081150290604051600060405180830381858888f19350505050158015611817573d6000803e3d6000fd5b50565b60006064600554606461182d91906123bb565b6118379190612444565b6064476118449190612444565b61184e91906123bb565b905080600a81905550600360009054906101000a900473ffffffffffffffffffffffffffffffffffffffff1673ffffffffffffffffffffffffffffffffffffffff166108fc829081150290604051600060405180830381858888f193505050501580156118bf573d6000803e3d6000fd5b5050565b47600080600260009054906101000a900473ffffffffffffffffffffffffffffffffffffffff1673ffffffffffffffffffffffffffffffffffffffff1673ffffffffffffffffffffffffffffffffffffffff1681526020019081526020016000205461192f9190612475565b600080600260009054906101000a900473ffffffffffffffffffffffffffffffffffffffff1673ffffffffffffffffffffffffffffffffffffffff1673ffffffffffffffffffffffffffffffffffffffff1681526020019081526020016000208190555047600080600160009054906101000a900473ffffffffffffffffffffffffffffffffffffffff1673ffffffffffffffffffffffffffffffffffffffff1673ffffffffffffffffffffffffffffffffffffffff168152602001908152602001600020546119ff919061223b565b600080600160009054906101000a900473ffffffffffffffffffffffffffffffffffffffff1673ffffffffffffffffffffffffffffffffffffffff1673ffffffffffffffffffffffffffffffffffffffff168152602001908152602001600020819055506004600c60006101000a81548160ff02191690836005811115611a8957611a88611c0f565b5b021790555047600b81905550600160009054906101000a900473ffffffffffffffffffffffffffffffffffffffff1673ffffffffffffffffffffffffffffffffffffffff166108fc479081150290604051600060405180830381858888f19350505050158015611afd573d6000803e3d6000fd5b50565b600082825260208201905092915050565b7f6f6e6c7920627579657200000000000000000000000000000000000000000000600082015250565b6000611b47600a83611b00565b9150611b5282611b11565b602082019050919050565b60006020820190508181036000830152611b7681611b3a565b9050919050565b600073ffffffffffffffffffffffffffffffffffffffff82169050919050565b6000611ba882611b7d565b9050919050565b611bb881611b9d565b82525050565b6000602082019050611bd36000830184611baf565b92915050565b60008115159050919050565b611bee81611bd9565b82525050565b6000602082019050611c096000830184611be5565b92915050565b7f4e487b7100000000000000000000000000000000000000000000000000000000600052602160045260246000fd5b60068110611c4f57611c4e611c0f565b5b50565b6000819050611c6082611c3e565b919050565b6000611c7082611c52565b9050919050565b611c8081611c65565b82525050565b6000602082019050611c9b6000830184611c77565b92915050565b600080fd5b611caf81611b9d565b8114611cba57600080fd5b50565b600081359050611ccc81611ca6565b92915050565b6000819050919050565b611ce581611cd2565b8114611cf057600080fd5b50565b600081359050611d0281611cdc565b92915050565b60008060008060808587031215611d2257611d21611ca1565b5b6000611d3087828801611cbd565b9450506020611d4187828801611cbd565b9350506040611d5287828801611cf3565b9250506060611d6387828801611cf3565b91505092959194509250565b611d7881611cd2565b82525050565b6000602082019050611d936000830184611d6f565b92915050565b600060208284031215611daf57611dae611ca1565b5b6000611dbd84828501611cf3565b91505092915050565b600081519050919050565b600082825260208201905092915050565b6000819050602082019050919050565b611dfb81611cd2565b82525050565b6000611e0d8383611df2565b60208301905092915050565b6000602082019050919050565b6000611e3182611dc6565b611e3b8185611dd1565b9350611e4683611de2565b8060005b83811015611e77578151611e5e8882611e01565b9750611e6983611e19565b925050600181019050611e4a565b5085935050505092915050565b60006020820190508181036000830152611e9e8184611e26565b905092915050565b7f6f6e6c7920657363726f77206f776e6572000000000000000000000000000000600082015250565b6000611edc601183611b00565b9150611ee782611ea6565b602082019050919050565b60006020820190508181036000830152611f0b81611ecf565b9050919050565b7f657363726f77206f776e65722063616e206e6f74206265206275796572206f7260008201527f2073656c6c657200000000000000000000000000000000000000000000000000602082015250565b6000611f6e602783611b00565b9150611f7982611f12565b604082019050919050565b60006020820190508181036000830152611f9d81611f61565b9050919050565b7f627579657220616e642073656c6c65722063616e206e6f74206265207468652060008201527f73616d6500000000000000000000000000000000000000000000000000000000602082015250565b6000612000602483611b00565b915061200b82611fa4565b604082019050919050565b6000602082019050818103600083015261202f81611ff3565b9050919050565b7f6665652070657263656e742063616e6e6f74206265206c657373207468616e2060008201527f30206f722067726561746572207468616e203130300000000000000000000000602082015250565b6000612092603583611b00565b915061209d82612036565b604082019050919050565b600060208201905081810360008301526120c181612085565b9050919050565b7f63686f6f736520612068696768657220626c6f636b206e756d62657200000000600082015250565b60006120fe601c83611b00565b9150612109826120c8565b602082019050919050565b6000602082019050818103600083015261212d816120f1565b9050919050565b7f63616e206e6f7420626520636f6e747261637420616464726573736573000000600082015250565b600061216a601d83611b00565b915061217582612134565b602082019050919050565b600060208201905081810360008301526121998161215d565b9050919050565b7f657363726f772074696d652068617320656e6465640000000000000000000000600082015250565b60006121d6601583611b00565b91506121e1826121a0565b602082019050919050565b60006020820190508181036000830152612205816121c9565b9050919050565b7f4e487b7100000000000000000000000000000000000000000000000000000000600052601160045260246000fd5b600061224682611cd2565b915061225183611cd2565b9250827fffffffffffffffffffffffffffffffffffffffffffffffffffffffffffffffff038211156122865761228561220c565b5b828201905092915050565b60006040820190506122a66000830185611baf565b6122b36020830184611d6f565b9392505050565b7f6e6f7420617070726f766564206f722063616e63656c6c656400000000000000600082015250565b60006122f0601983611b00565b91506122fb826122ba565b602082019050919050565b6000602082019050818103600083015261231f816122e3565b9050919050565b7f6f6e6c79206275796572206f722073656c6c6572000000000000000000000000600082015250565b600061235c601483611b00565b915061236782612326565b602082019050919050565b6000602082019050818103600083015261238b8161234f565b9050919050565b60006040820190506123a76000830185611d6f565b6123b46020830184611d6f565b9392505050565b60006123c682611cd2565b91506123d183611cd2565b9250817fffffffffffffffffffffffffffffffffffffffffffffffffffffffffffffffff048311821515161561240a5761240961220c565b5b828202905092915050565b7f4e487b7100000000000000000000000000000000000000000000000000000000600052601260045260246000fd5b600061244f82611cd2565b915061245a83611cd2565b92508261246a57612469612415565b5b828204905092915050565b600061248082611cd2565b915061248b83611cd2565b92508282101561249e5761249d61220c565b5b82820390509291505056fea264697066735822122052d7c4ddf0efa7b1af1fa67bff53c89038f1dbda71ac4f9b6930bf4bcc531e2f64736f6c634300080f0033a2646970667358221220d92b69736cffad87864ced2fea87b07f4854542dcd7a81228932fb647c954d3f64736f6c634300080f0033",
  "linkReferences": {},
  "deployedLinkReferences": {}
}